:100000005BC0000074C0000072C0000070C000003F
:100010006EC000006CC000006AC0000068C0000034
:1000200066C0000099C0000062C0000060C000000F
:100030005EC000005CC000005AC0000058C0000054
:1000400056C0000054C0000052C0000050C0000064
:100050004EC000004CC000004AC0000048C0000074
:1000600046C0000013C1000042C0000040C00000B4
:100070003EC000003CC000003AC0000038C0000094
:1000800036C0000034C0000032C0000030C00000A4
:100090002EC000002CC000002AC0000028C00000B4
:1000A00026C0000024C0000022C000006364696E06
:1000B0006F70737578585B0011241FBECFEFDAE0C4
:1000C000DEBFCDBF11E0A0E0B1E0E6EEFEE002C091
:1000D00005900D92A83CB107D9F723E0A8ECB1E058
:1000E00001C01D92A433B207E1F7DDD1FAC688CF73
:1000F000CF93DF9326986A9A7298A0E8B0E01C929A
:10010000E1E8F0E01082C6E8D0E0198218828C9114
:1001100080628C938C9182608C93808188618083D3
:100120008081816080838FE99FE099838883DF915C
:10013000CF91089524982598EBE6F0E080818061C6
:100140008083808180628083E8E6F0E08081816046
:100150008083519A599A08951F920F920FB60F9269
:1001600011242F933F934F935F936F937F938F93BC
:100170009F93EF9343B144FB222720F930E045FBE6
:10018000882780F990E060912F0370913003E82F69
:100190004091320350913303261751F060912B03A5
:1001A00070912C036F5F7F4F70932C0360932B0330
:1001B000E41751F040912B0350912C034150510909
:1001C00050932C0340932B034091320350913303FF
:1001D0002417350751F040912F03509130038417B5
:1001E000950719F041E0409329033093330320939E
:1001F00032039093300380932F03EF919F918F915F
:100200007F916F915F914F913F912F910F900FBE12
:100210000F901F901895009731F410928B00109258
:100220008A0026980895BC018536910510F064E691
:1002300070E080E090E04BD220E030E048EC52E407
:10024000B2D120E030E04AE755E4CFD214D2615079
:10025000710970938B0060938A00269A089589E152
:1002600090E09093CD008093CC00EAECF0E08081A8
:1002700086608083E9ECF0E0808188608083808103
:100280008061808380818068808308951F920F92AF
:100290000FB60F9211248F939F93EF93FF9380914A
:1002A000CE008D3021F09091CA01923338F081E078
:1002B00090E09093C9018093C8012EC0883081F4EA
:1002C0008091CA01882329F08091CA0181508093CE
:1002D000CA01E091CA01F0E0E553FE4F10821CC054
:1002E000803279F08B3269F093ED980F923048F0BC
:1002F00090ED980F9A3028F0982F9F7D91549A3165
:1003000058F4E091CA01F0E0E553FE4F80838091FC
:10031000CA018F5F8093CA01FF91EF919F918F91E6
:100320000F900FBE0F901F9018959091C80095FFE9
:10033000FCCF8093CE000895CF93DF93EC01899199
:10034000882311F0F2DFFBCF8DE0EFDFDF91CF915B
:10035000089510929000E1E9F0E088E080838FE753
:100360009EE3909399008093980082E080937100BF
:100370008081816080830895A5E3B0E0E1ECF1E045
:10038000EBC08DE09AE0A0E0B0E089839A83AB8374
:10039000BC83FE0135968EE2DF011D928A95E9F756
:1003A000CE01C3969F938F9302969F938F9384E081
:1003B00091E09F938F938BEC91E09F938F937FD2EB
:1003C0000FB6F894DEBF0FBECDBF8DA98436E1F025
:1003D0001CF4813699F14EC0833751F0873709F00C
:1003E00049C088B1805888B972986AE071E007C046
:1003F0009BB180E289278BB9729A6BE171E0CE01E3
:10040000019656D281E03AC095B181E0892785B93D
:1004100080910001909101010A968536910514F0B2
:1004200084E690E0909301018093000180910001A7
:1004300090910101F0DE6DE271E0E1CF95B181E0D4
:10044000892785B980910001909101010A9797FD54
:1004500005C0909301018093000104C01092010136
:10046000109200018091000190910101D4DE61E4BD
:1004700071E0C5CF85E591E05FDF80E01092CA01B1
:1004800092E3EBECF1E0DF011D929A95E9F7882306
:1004900019F0CE01019650DF1092C9011092C801E7
:1004A000E596E2E075C01092D80022DE43DE3F9A66
:1004B000559A209A83E090E0479A2FEF33EC49E079
:1004C000215030404040E1F700C0000047985D985F
:1004D0002FEF33EC49E0215030404040E1F700C0BD
:1004E00000005D9A2FEF33EC49E02150304040404E
:1004F000E1F700C000000197F9F6809100019091AA
:10050000010189DE269AABDE83E691E015DF82E702
:1005100091E012DF82E891E00FDF83E991E00CDFE8
:100520008AEA91E009DF78948091C8019091C9012D
:10053000892BD1F321DFF8CF2F923F924F925F9218
:100540006F927F928F929F92AF92BF92CF92DF92E3
:10055000EF92FF920F931F93CF93DF93CDB7DEB748
:10056000CA1BDB0B0FB6F894DEBF0FBECDBF0994DC
:100570002A88398848885F846E847D848C849B8433
:10058000AA84B984C884DF80EE80FD800C811B8141
:10059000AA81B981CE0FD11D0FB6F894DEBF0FBE70
:1005A000CDBFED0108950CD0E6C0DED040F0D5D02F
:1005B00030F021F45F3F19F0C7C0511110C1CAC01B
:1005C000EBD098F39923C9F35523B1F3951B550B41
:1005D000BB27AA2762177307840738F09F5F5F4F16
:1005E000220F331F441FAA1FA9F333D00E2E3AF057
:1005F000E0E830D091505040E695001CCAF729D071
:10060000FE2F27D0660F771F881FBB1F26173707BF
:100610004807AB07B0E809F0BB0B802DBF01FF27EF
:1006200093585F4F2AF09E3F510568F08DC0D7C0A8
:100630005F3FECF3983EDCF3869577956795B79529
:10064000F7959F5FC9F7880F911D9695879597F944
:100650000895E1E0660F771F881FBB1F62177307BD
:100660008407BA0720F0621B730B840BBA0BEE1FD2
:1006700088F7E095089598D088F09F5790F0B92FAB
:100680009927B751A0F0D1F0660F771F881F991FE7
:100690001AF0BA95C9F712C0B13081F09FD0B1E01D
:1006A00008959CC0672F782F8827B85F39F0B93F2D
:1006B000CCF3869577956795B395D9F73EF49095E9
:1006C0008095709561957F4F8F4F9F4F0895E89467
:1006D00009C097FB3EF490958095709561957F4F8A
:1006E0008F4F9F4F9923A9F0F92F96E9BB27939538
:1006F000F695879577956795B795F111F8CFFAF448
:10070000BB0F11F460FF1BC06F5F7F4F8F4F9F4F78
:1007100016C0882311F096E911C0772321F09EE8D6
:10072000872F762F05C0662371F096E8862F70E03C
:1007300060E02AF09A95660F771F881FDAF7880F16
:100740009695879597F9089597F99F6780E870E0E7
:1007500060E008959FEF80EC089500240A94161637
:10076000170618060906089500240A94121613069F
:10077000140605060895092E0394000C11F488232D
:1007800052F0BB0F40F4BF2B11F460FF04C06F5F49
:100790007F4F8F4F9F4F089557FD9058440F551F1F
:1007A00059F05F3F71F04795880F97FB991F61F0F3
:1007B0009F3F79F087950895121613061406551F6A
:1007C000F2CF4695F1DF08C0161617061806991FD6
:1007D000F1CF86957105610508940895E894BB27CB
:1007E00066277727CB0197F908950BD0C4CFB5DFE3
:1007F00028F0BADF18F0952309F0A6CFABCF11246B
:10080000EECFCADFA0F3959FD1F3950F50E0551FAF
:10081000629FF001729FBB27F00DB11D639FAA2755
:10082000F00DB11DAA1F649F6627B00DA11D661FA4
:10083000829F2227B00DA11D621F739FB00DA11DC5
:10084000621F839FA00D611D221F749F3327A00D7F
:10085000611D231F849F600D211D822F762F6A2F1B
:1008600011249F5750408AF0E1F088234AF0EE0FA0
:10087000FF1FBB1F661F771F881F91505040A9F7AD
:100880009E3F510570F060CFAACF5F3FECF3983EDA
:10089000DCF3869577956795B795F795E7959F5F14
:1008A000C1F7FE2B880F911D9695879597F90895AE
:1008B000FB01DC0101900D920020E1F70895AEE00C
:1008C000B0E0E4E6F4E048CE85E08C838B899C8937
:1008D0009A838983AE01495E5F4F6D897E89CE011F
:1008E000019672D12E96E2E053CE20FD09C0FC01A4
:1008F00023FD05C022FF02C07383628351834083BE
:10090000089544FD10C046FD10C0DB01FC01AA0F94
:10091000BB1FEE1FFF1F1094D1F76A0F7B1F8E1FA6
:100920009F1F31E003C033E001C034E0660F771F42
:10093000881F991F3150D1F7620F711D811D911DC4
:1009400008950F931F93CF93DF938C01C8016FD24B
:10095000EC0197FD06C058D2892BC1F7B801CE0132
:10096000A4D2CE01DF91CF911F910F910895A1E004
:10097000B0E0ECEBF4E0E6CD8C01C62E7A012983E1
:1009800056D2AC01552729814B32510521F04D3209
:10099000510561F42068CA94C11002C080E06FC0A4
:1009A000C801298344D2298197FDF8CF322F3D7F9A
:1009B000D32E322F307339F5803329F5BB24BA9406
:1009C000BC0C09F449C0C801298331D2298197FDA3
:1009D00043C0382F3F7D383561F48D2D8264D82E89
:1009E000CA94CA94CC20C1F1C80121D297FF0BC090
:1009F00033C026FF04C02D2D2260D22E03C03D2D12
:100A00003261D32ECB2C812C912C540120ED280F58
:100A1000283078F0D4FE03C0B80147D21AC02A307B
:100A200040F0D6FEF9CF2F7D3FEE320F3630A0F7E3
:100A300027504D2DC501B40164DF4B015C018D2DA4
:100A40008260D82ECA94CC2051F0C801F0D197FF13
:100A5000DDCFD1FC04C0A2CF812C912C5401D7FE54
:100A600008C0B094A09490948094811C911CA11C07
:100A7000B11C2D2DB501A401C70137DF81E02196FE
:100A8000ECE07CCDA1E2B0E0E7E4F5E059CD5C011B
:100A90007A01CE0101966C0180E2F60111928A95ED
:100AA000E9F7F501838040E050E0912C712C70E073
:100AB000A1E0B0E0F90183FC859183FE81918F0173
:100AC000982F9F01811103C080E090E07AC08E359D
:100AD00019F44115510549F1E72FF0E0E417F50746
:100AE0003CF48D3559F18D3219F4772001F103C0B2
:100AF000711001C0982E892F86958695869586015E
:100B0000080F111D892F87703D0101C0660C8A9561
:100B1000EAF7F801808186298083991559F09915A3
:100B200010F49F5FE8CF9150E6CF71E004C07724C6
:100B3000739401C0712C4F5F5F4FBCCF772019F0C9
:100B40008E8180628E83711103C09924939416C0A4
:100B5000F6019E012F5D3F4F808180958193E217C2
:100B6000F307D1F7F2CFE114F10429F0F701808304
:100B7000C70101967C016150912CE9F0C50169A380
:100B800056D169A197FD15C0282F26952695269543
:100B9000F601E20FF11D208130E0AC0147705527CE
:100BA00002C0359527954A95E2F720FDDCCFB501C7
:100BB0007CD1911089CFE114F10411F0F70110827A
:100BC000C801A196EEE0D8CC4F925F927F928F92AF
:100BD0009F92AF92BF92CF92DF92EF92FF920F93CC
:100BE0001F93CF93DF931F92CDB7DEB76C012B011C
:100BF0005A01FC0117821682712CF601F380F20172
:100C0000F3FC8591F3FE8191382F2F01882309F49D
:100C1000E5C090E03983F8D03981892B19F0C601FD
:100C200090DEEBCF353241F4F201F3FC3591F3FE67
:100C300031912F01353259F4C6013983F8D0398109
:100C400097FDCAC03817C9F2B6012FD1C7C03A32D2
:100C500039F4F3FC3591F3FE31912F0151E001C0DD
:100C600050E0420110E020ED230F2A3088F452605A
:100C7000612F70E080E090E040E2598342DE162F61
:100C8000F401F3FC3591F3FE31914F015981EBCF23
:100C9000052F232F240151FF03C0111102C09EC054
:100CA0001FEF383619F03C3659F011C0F401F3FC4F
:100CB0002591F3FE21912F01283649F4052F086074
:100CC0000460F201F3FC2591F3FE21912F01222310
:100CD00009F484C0622F70E08CEA90E029839CD0F4
:100CE0002981892B09F47AC000FD07C0F501E08055
:100CF000F180C50102965C0102C0E12CF12C2E3678
:100D000049F4F6014681578160E070E0202FC70169
:100D1000ECDD73CF233689F401FF11E0C60187D0E3
:100D200097FD5AC0E114F10429F0F7018083C7014F
:100D300001967C01115091F74BC02B3551F4920173
:100D4000A701612FC6019EDE2C01892B09F040C04E
:100D50003AC0C6012983F5DD298197FD3DC02F36B4
:100D600041F128F4243619F1293631F124C0233712
:100D700069F02537E1F01FC0E114F10429F0F70113
:100D80008082C70101967C01115059F0C6014FD0F5
:100D90004C0197FD06C038D0892B71F3B601C40110
:100DA00084D0E114F104A1F0F701108211C00062B7
:100DB00003C0006101C00064202FA701612FC6019C
:100DC000D6DD811105C0F6018381807329F406C048
:100DD00000FD13CF739411CF772019F0872D90E089
:100DE00002C08FEF9FEF0F90DF91CF911F910F9176
:100DF000FF90EF90DF90CF90BF90AF909F908F903B
:100E00007F905F904F900895911168C0803219F0E3
:100E100089508550D0F70895FC010590061621F001
:100E20000020D9F7C00108953197CF010895CF93DD
:100E3000DF93EC012B8120FF33C026FF0AC02F7BFC
:100E40002B838E819F8101969F838E838A8190E080
:100E500029C022FF0FC0E881F9818081082E000C93
:100E6000990B009719F420622B831AC03196F983ED
:100E7000E8830EC0EA85FB85099597FF09C02B81A1
:100E8000019611F080E201C080E1822B8B8308C0C3
:100E90002E813F812F5F3F4F3F832E83992702C0D2
:100EA0008FEF9FEFDF91CF910895FB01238120FF0A
:100EB00012C026FD10C08F3F3FEF930761F0828381
:100EC0002F7D206423832681378121503109378388
:100ED0002683992708958FEF9FEF089599278827F4
:060EE0000895F894FFCF15
:100EE6000A00C1012563202564004D6F746F7220CE
:100EF600666F72776172642E0D0A004D6F746F72A1
:100F0600206261636B776172642E0D0A00496E631D
:100F160072656173696E672073706565642E0D0A6C
:100F26000044656372656173696E672073706565F9
:100F3600642E0D0A00772C20732C20642C2061204F
:100F46000D0A004865726520776520676F210D0AD6
:100F5600200077202D20666F7277617264210D0A5A
:100F6600200073202D206261636B77617264210D0E
:100F76000A200064202D20696E6372656173652006
:100F86007370656564210D0A200061202D2064655B
:100F9600637265617365207370656564210D0A204F
:080FA600004D454E550A0D00F7
:00000001FF
