:10000000DCC00000F6C00000F4C00000F2C0000038
:10001000F0C00000EEC00000ECC00000EAC000002C
:10002000E8C000001BC10000E4C00000E2C0000006
:10003000E0C00000DEC00000DCC00000DAC000004C
:10004000D8C00000D6C00000D4C00000D2C000005C
:10005000D0C00000CEC00000CCC00000CAC000006C
:10006000C8C000008EC10000C4C00000C2C00000B3
:10007000C0C00000BEC00000BCC00000BAC000008C
:10008000B8C00000B6C00000B4C00000B2C000009C
:10009000B0C00000AEC00000ACC00000AAC00000AC
:1000A000A8C00000A6C00000A4C000006E616E00E1
:1000B000696E660000407A10F35A00A0724E18096B
:1000C0000010A5D4E80000E87648170000E40B54BF
:1000D000020000CA9A3B000000E1F505000080968E
:1000E0009800000040420F000000A08601000000C0
:1000F000102700000000E80300000000640000007A
:1001000000000A00000000000100000000002C7642
:10011000D888DC674F0823DFC1DFAE59E1B1B7965D
:10012000E5E3E453C63AE651997696E8E6C28426BA
:10013000EB898C9B62ED407C6FFCEFBC9C9F40F296
:10014000BAA56FA5F490055A2AF75C936B6CF96712
:100150006DC11BFCE0E40D47FEF520E6B500D0EDD7
:10016000902E0300943577050080841E080000203F
:100170004E0A000000C80C333333330F986E1283DD
:100180001141EF8D2114893BE65516CFFEE6DB18B1
:10019000D1844B381BF77C1D901DA4BBE424203276
:1001A00084725E228100C9F124ECA1E53D276364DD
:1001B000696E6F70737578585B0011241FBECFEFA6
:1001C000DAE0DEBFCDBF14E0A0E0B1E0ECE5F5E29F
:1001D00002C005900D92AE3BB107D9F726E0AEEB19
:1001E000B4E001C01D92A732B207E1F7F3D60C9438
:1001F000AC1206CFCF93DF9326986A9A7298A0E844
:10020000B0E01C92E1E8F0E01082C6E8D0E019828C
:1002100018828C9180628C938C9182608C93808107
:10022000886180838081816080838FE99FE09983EA
:100230008883DF91CF91089524982598EBE6F0E02C
:10024000808180618083808180628083E8E6F0E045
:10025000808181608083519A599A08951F920F92EC
:100260000FB60F9211242F933F934F935F936F9389
:100270007F938F939F93EF9343B144FB222720F901
:1002800030E045FB882780F990E06091230670916B
:100290002406E82F40915205509153052617A1F0EE
:1002A00060912506709126066F5F7F4F709326063A
:1002B0006093250660912106709122066F5F7F4F43
:1002C0007093220660932106E417A1F04091250661
:1002D0005091260641505109509326064093250619
:1002E0004091210650912206415051095093220617
:1002F000409321064091520550915305241735072C
:1003000051F040912306509124068417950719F067
:1003100041E0409354053093530520935205909348
:100320002406809323068091E0049091E1040196D5
:100330009093E1048093E004EF919F918F917F91DE
:100340006F915F914F913F912F910F900FBE0F9042
:100350001F90189589E190E09093CD008093CC0098
:10036000EAECF0E0808186608083E9ECF0E0808157
:1003700088608083808180618083808180688083C1
:1003800008951F920F920FB60F9211242F933F934F
:100390008F939F93EF93FF938091CE002091DE0483
:1003A0003091DF0412161306E4F58D3021F09091A0
:1003B000EA04923338F081E090E09093E704809370
:1003C000E6046AC0883079F48091EA04882329F031
:1003D0008091EA0481508093EA04E091EA04F0E01D
:1003E000E451FB4F3BC0853639F481E090E09093B7
:1003F000DD048093DC0450C090ED980F9A3028F013
:1004000093ED980F923008F047C0E091EA04F0E0D5
:10041000E451FB4F80838091EA048F5F8093EA046C
:100420003BC08D3021F09091EB04923338F081E0A5
:1004300090E09093E9048093E8042EC0883081F422
:100440008091EB04882329F08091EB048150809304
:10045000EB04E091EB04F0E0E25EFA4F10821CC086
:10046000803279F08B3269F093ED980F923048F03A
:1004700090ED980F9A3028F0982F9F7D91549A31E3
:1004800058F4E091EB04F0E0E25EFA4F8083809153
:10049000EB048F5F8093EB04FF91EF919F918F911D
:1004A0003F912F910F900FBE0F901F901895909134
:1004B000C80095FFFCCF8093CE000895CF93DF93C3
:1004C000EC018991882311F0F2DFFBCF8DE0EFDFA3
:1004D000DF91CF9108951092260610922506089577
:1004E00081E090E09093DF048093DE048091E60445
:1004F0009091E704892BA1F48091C0049091C104EC
:10050000A091C204B091C3040196A11DB11D8093B6
:10051000C0049093C104A093C204B093C304E6CF77
:10052000E091EA04F0E08CEE94E0E351FB4F20E32D
:10053000208328ED34E03F932F932AE333E03F9369
:100540002F939F938F930E943C0F6091D8047091DA
:10055000D904CB0188599E4F0F900F900F900F90A8
:100560000F900F90813D9240A8F4072E000C880B4D
:10057000990B0E94810C24E13EEA47EC50E40E9472
:10058000350D0E944E0C7093D7046093D6048CEE08
:1005900094E002C08AE091E091DF1092DF041092B3
:1005A000DE041092EA0482E3ECEEF4E0DF011D9237
:1005B0008A95E9F71092E7041092E6040895CF9324
:1005C000DF9381E090E09093DF048093DE0410924B
:1005D000DD041092DC0488E391E070DF8091E60492
:1005E0009091E704892BA1F48091C0049091C104FB
:1005F000A091C204B091C3040196A11DB11D8093C6
:10060000C0049093C104A093C204B093C304E6CF86
:100610008091DC049091DD04892B09F047C0E091C2
:10062000EA04F0E08CEE94E0E351FB4F20E32083FA
:1006300028ED34E03F932F932AE333E03F932F9349
:100640009F938F930E943C0F6091D8047091D904BE
:10065000CB0188599E4F0F900F900F900F900F90E5
:100660000F90813D9240F8F4C091DA04D091DB0400
:10067000072E000C880B990B0E94810C24E13EEAA6
:1006800047EC50E40E94350D0E944E0CFE01EE0F27
:10069000FF1FE75AFA4F718360832196D093DB04E2
:1006A000C093DA0403C08AE091E008DF1092DF040F
:1006B0001092DE041092EA0482E3ECEEF4E0DF0133
:1006C0001D928A95E9F71092E7041092E604DF91F3
:1006D000CF910895CF92DF92EF92FF92CF93DF9365
:1006E0008091BE049091BF0401969093BF048093C3
:1006F000BE0480912106909122066091D4047091ED
:10070000D504EB01C81BD90BD093C704C093C60412
:1007100080912106909122066091E0047091E1049D
:100720000E94AC0D072E000C880B990B0E94810CC7
:100730006093D0047093D1048093D2049093D30437
:100740008091E0049091E104209157053091580583
:10075000821B930B18161906ECF46091E00470915B
:10076000E1048091C4049091C504AE01481B590B6B
:10077000CA01621B730B0E94980D80E090E00E94FA
:100780007F0C6093C8047093C9048093CA0490934B
:10079000CB0408C01092C8041092C9041092CA0475
:1007A0001092CB04BE0180E090E00E947F0C20916B
:1007B00004013091050140910601509107010E940A
:1007C000350D6B017C012091C8043091C904409122
:1007D000CA045091CB046091000170910101809195
:1007E0000201909103010E94350D9B01AC01C701EC
:1007F000B60184D76093CC047093CD048093CE046B
:100800009093CF040E944E0C9B0177FF04C02227D7
:100810003327261B370BB901330F880B990B0E9426
:10082000810C20E030E040E85FE368D76B017C0199
:100830008091080190910901BC0180E090E00E9444
:100840007F0C20E030E048EC52E4C0D79B01AC01C3
:10085000C701B6010E94350D0E94530C6150710909
:1008600070938B0060938A0086E591E027DEDF912C
:10087000CF91FF90EF90DF90CF900895CF93DF93CB
:10088000269A2091DC043091DD042130310521F0DD
:100890008091D6049091D7049093D5048093D4048A
:1008A000479A109222061092210614DF8091D404F8
:1008B0009091D504C0E0D0E0181619060CF04EC097
:1008C00020E030E0A9016091CC047091CD048091CA
:1008D000CE049091CF040E94310D181684F5219614
:1008E0008091C6049091C7049093C5048093C4047A
:1008F0008091E0049091E10490935805809357050E
:100900007298E8DEC93E83E0D807D1F618C0219678
:100910008091C6049091C7049093C5048093C40449
:100920008091E0049091E1049093580580935705DD
:10093000729AD0DEC93E83E0D8070CF05AC020E09E
:1009400030E0A9016091CC047091CD048091CE0477
:100950009091CF0437D787FDDACF4BC020E030E04D
:10096000A9016091CC047091CD048091CE04909146
:10097000CF040E94310D1816BCF421968091C60454
:100980009091C7049093C5048093C4048091E004BF
:100990009091E1049093580580935705729A9ADEDE
:1009A000C93E83E0D807D1F620E030E0A90160918C
:1009B000CC047091CD048091CE049091CF0402D7E5
:1009C00087FF17C021968091C6049091C704909329
:1009D000C5048093C4048091E0049091E104909355
:1009E000580580935705729875DEC93E83E0D80795
:1009F000DCF226981092C7041092C6041092CC0420
:100A00001092CD041092CE041092CF044798DF913B
:100A1000CF9108958D3221E0920720F410920901C0
:100A2000109208019C012C5231402A30310530F4DB
:100A300024E130E030930901209308019C01265302
:100A400031402A30310530F428E230E0309309019A
:100A5000209308019C01205431402A30310530F4A4
:100A60002CE330E030930901209308019C012A54C3
:100A700031402A30310518F480E590E005C0843516
:100A8000914030F084E690E0909309018093080152
:100A9000089580E480937C0087E880937A00569ADA
:100AA0005E9A089590917C008F70907E892B809340
:100AB0007C0080917A00806480937A0080917A0033
:100AC00086FDFCCF80917800909179000895ACEB81
:100AD000B2E0EDE6F5E00C94BF0D8091D9048F9360
:100AE0008091D8048F9304E611E01F930F934E0179
:100AF00087EA881A8DEF980A9F928F920E941C0FA6
:100B000088E691E0DBDCC401D9DC8CEA93E0D6DC3A
:100B10006091250670912606072E000C880B990B14
:100B2000F0D624E13EEA47EC50E450D6B7D67F93A6
:100B30006F931F930F935E019BE0A91A9EEFB90A72
:100B4000BF92AF920E941C0F8EE891E0B7DCC50106
:100B5000B5DC8CEA93E0B2DC809107018F93809141
:100B600006018F93809105018F93809104018F93EB
:100B700083EB282E81E0382E3F922F926E01E3ED19
:100B8000CE1AEEEFDE0ADF92CF920E941C0F87EBA7
:100B900091E094DCC60192DC8CEA93E08FDC8091DA
:100BA00003018F93809102018F93809101018F93B4
:100BB000809100018F933F922F927E01FFE6EF1A02
:100BC000FEEFFF0AFF92EF920E941C0F8CEC91E067
:100BD00075DCC70173DC8CEA93E070DC809109015D
:100BE0008F93809108018F931F930F933E0189EC9F
:100BF000680E711C7F926F920E941C0F0FB6F894C2
:100C0000DEBF0FBECDBF8FED91E058DCC30156DCD7
:100C10008CEA93E053DC8091D3048F938091D204CB
:100C20008F938091D1048F938091D0048F931F93E1
:100C30000F93CE0101962C019F938F930E941C0F5E
:100C40008DEE91E03BDCC20139DC8CEA93E036DCCE
:100C50008091CF048F938091CE048F938091CD04A7
:100C60008F938091CC048F933F922F928E010B59DA
:100C70001F4F1F930F930E941C0F89EF91E01EDC02
:100C8000C8011CDC8CEA93E019DC84E6F401982F9F
:100C900011929A95E9F7F501982F11929A95E9F733
:100CA000F601982F11929A95E9F7F701982F119272
:100CB0009A95E9F7F301982F11929A95E9F7F801BF
:100CC000982F11929A95E9F7F20111928A95E9F716
:100CD0000FB6F894DEBF0FBECDBFC454DD4FE2E1C6
:100CE0006AC783E092E0EADB83E192E0E7DB87E238
:100CF00092E0E4DB85E592E0E1DB88E992E0DEDB8F
:100D000081ED92E0DBDB8BEE92E0D8DB8EEF92E0C0
:100D1000D5DB81E193E0D2DB84E293E0CFCBA3E0AB
:100D2000B0E0E4E9F6E039C7CE0101969F938F93D6
:100D300002969F938F9387E393E09F938F938EE127
:100D400095E09F938F930E943C0F0FB6F894DEBFFF
:100D50000FBECDBF8B81803709F499C074F4803504
:100D600009F466C024F4843409F4C3C022C1843673
:100D700009F4F0C08D36E1F01CC1843709F448C095
:100D800044F4823709F015C182E693E097DBA8DBD3
:100D900010C18637C1F18A3709F00BC184E993E0AD
:100DA0008DDB10922606109225068EEA93E09CC0F9
:100DB0008DE393E083DB8091DC049091DD04019767
:100DC000C9F400E010E08091DA049091DB04081788
:100DD00019075CF4F801EE0FFF1FE75AFA4F808104
:100DE00091814CDD0F5F1F4FEECF1092DD0410920A
:100DF000DC0405C08091D6049091D7043FDD81E5E5
:100E000093E05CDBD6C087EB93E058DB60DED2C0BA
:100E10008EEC93E053DB1092DB041092DA048091A5
:100E2000DC049091DD04892B09F0C3C0C8DBF7CF47
:100E30008AEE93E043DB2DEC3CEC4CE45DE3609107
:100E4000040170910501809106019091070156D42B
:100E5000609304017093050180930601909307014C
:100E600020E030E040E050E4FCD518166CF480E05F
:100E700090E0A0E0B0E48093040190930501A0937A
:100E80000601B093070160C08CE194E02DC08DE2B3
:100E900094E014DB2DEC3CEC4CE45DE36091040148
:100EA00070910501809106019091070126D460930D
:100EB00004017093050180930601909307012DECC6
:100EC0003CEC4CE45DE37ED487FF10C08DEC9CECE1
:100ED000ACE4BDE38093040190930501A093060167
:100EE000B093070184E494E0E9DA64C08FE594E00C
:100EF000FBCF80E794E0E2DA2DEC3CEC4CE45DE3E0
:100F000060910001709101018091020190910301B3
:100F1000F5D36093000170930101809302019093D7
:100F2000030120E030E040E050E49BD518167CF44B
:100F300080E090E0A0E0B0E4809300019093010194
:100F4000A0930201B093030181E094E0CDCF86E845
:100F500094E0CACF87E994E0B1DA2DEC3CEC4CE4A4
:100F60005DE3609100017091010180910201909117
:100F70000301C3D3609300017093010180930201C8
:100F8000909303012DEC3CEC4CE45DE31BD487FF14
:100F90000DC08DEC9CECACE4BDE38093000190931C
:100FA0000101A0930201B09303019CCF8DEA94E06C
:100FB0009BCF97DE1092EB0482E3EEE1F5E0DF01D8
:100FC0001D928A95E9F71092E9041092E80423969D
:100FD000E4E0FFC51092D8000DD92ED983E090E04F
:100FE000479A2FEF33EC49E0215030404040E1F781
:100FF00000C0000047985D9A2FEF33EC49E0215084
:1010000030404040E1F700C000005D982FEF33EC26
:1010100049E0215030404040E1F700C00000019716
:10102000F9F698D95EDE789434DD8091E8049091E9
:10103000E904892BD1F387E035DDECDC70DEF5CFF8
:10104000A3E1B0E0E5E2F8E09AC56C014B012A01AA
:10105000FC0117821682838181FF29C3AE014F5F95
:101060005F4F3A01F6019381F40193FD859193FF5F
:1010700081914F01882309F416C3853239F493FD19
:10108000859193FF81914F01853231F4B60190E053
:101090009BD652012501E6CF10E0F12C20E0203252
:1010A000A0F48B3269F030F4803259F0833269F465
:1010B00020612CC08D3239F0803339F4216026C094
:1010C0002260246023C0286021C027FD27C030EDA6
:1010D000380F3A3078F426FF06C0FAE01F9F300D33
:1010E0001124132F13C04AE0F49E300D1124F32E67
:1010F00020620CC08E3221F426FDD5C2206406C0C9
:101100008C3611F4206802C0883641F4F40193FD56
:10111000859193FF81914F018111C1CF9BEB980F76
:10112000933018F42061805E06C09BE9980F9330DD
:1011300008F064C12F7E26FF16E02F73322E85360D
:1011400019F42064322E08C0863621F4F22FF0689C
:101150003F2E02C01111115037FE07C01C3350F44E
:10116000EE24E394E10E27E00BC0183038F027E0BE
:1011700017E005C027E04CE3E42E02C0212FE12C4C
:10118000520144E0A40EB11CF201608171818281A0
:1011900093810E2DA3012AD52C01098100FF02C0E5
:1011A00003FF07C031FC08C032FE09C030E2232E25
:1011B00007C02DE2222E04C09BE2292E01C0212C63
:1011C000802F8C7019F0211051C28DC237FE0FC0D4
:1011D000E40C04FF04C08A81813309F4EA941E14EC
:1011E00074F5F8E0FE1578F588E0E82E2CC036FCA2
:1011F0002AC0812F90E0841595059CF02CEF4216B3
:101200002FEF520674F0432D4068342E0AC0E2E0FE
:10121000F0E0EC0FFD1FE10FF11D8081803319F428
:1012200011501111F4CF37FE0EC0EE24E394E10EFD
:10123000812F90E0481659062CF4141904C0EE24AE
:10124000E39401C010E037FE06C01414150434F412
:10125000C201019605C085E090E002C081E090E007
:1012600021100196112331F0212F30E02F5F3F4FE5
:10127000820F931F2F2D30E08217930714F4F81A72
:1012800001C0F12C832D897041F4FF2031F0B601AB
:1012900080E290E099D5FA94F8CF222021F0B601AF
:1012A000822D90E091D533FC08C0FF2031F0B601CB
:1012B00080E390E089D5FA94F8CF37FE58C0942D9A
:1012C000852D57FE02C090E080E0292E382E20E0C8
:1012D00030E0A2014E1951095D874C87A2014219E5
:1012E00053095F874E87612F70E044275527461BBF
:1012F000570B598B488B5FEF2516350641F4B60125
:101300008EE290E02A8B3B8B5FD53B892A89421481
:1013100053046CF04C855D854215530544F4EE850D
:10132000FF85E20FF31FE60DF71D818101C080E309
:1013300051E0251A31082F5F3F4F488959892416FB
:10134000350644F0B60190E02A8B3B8B3DD52A89C7
:101350003B89D1CF2414350439F49A81963318F49B
:10136000953311F404FF81E3B60190E045C08A8112
:10137000813309F00F7EB60190E026D5111105C02A
:1013800034FC16C085E690E015C0B6018EE290E010
:101390001BD582E0EE24E394E80EF301E80FF11D83
:1013A0008081B60190E010D511508E2D99F7E8CFCD
:1013B00085E490E0B60108D557FC05C041145104FE
:1013C00039F404FF05C05194419451088DE201C0E5
:1013D0008BE2B60190E0F8D480E39AE0491651041C
:1013E0002CF08F5F5AE0451A5108F7CFB60190E014
:1013F000EBD4B601C201C096E7D44CC1833631F0BC
:10140000833779F0833509F054C020C05201E2E0FF
:10141000AE0EB11CF2018081898301E010E023014E
:1014200013C05201F2E0AF0EB11CF20140805180B6
:1014300026FF03C0612F70E002C06FEF7FEFC20193
:101440002A8BB7D48C012A892F7714C05201F2E07D
:10145000AF0EB11CF2014080518026FF03C0612F06
:1014600070E002C06FEF7FEFC2012A8B97D48C012E
:101470002A892068322E23FD18C08F2D90E008178E
:10148000190798F4B60180E290E09ED4FA94F5CF63
:10149000F20137FC859137FE81912F01B60190E072
:1014A00093D4F110FA94015011090115110581F737
:1014B000F1C0843611F0893651F5520127FF09C079
:1014C000F4E0AF0EB11CF2016081718182819381E1
:1014D0000AC0F2E0AF0EB11CF20160817181072EEB
:1014E000000C880B990B2F76322E97FF09C0909530
:1014F0008095709561957F4F8F4F9F4F2068322E5A
:101500002AE030E0A301CED4E82EE6183EC0022F38
:10151000853721F40F7E2AE030E01DC0097F8F3629
:1015200091F018F4883559F0BEC0803719F088372B
:1015300011F0B9C0006104FF09C0046007C024FFB6
:1015400008C0066006C028E030E005C020E130E0B9
:1015500002C020E132E0520107FF09C0F4E0AF0E03
:10156000B11CF201608171818281938108C0F2E037
:10157000AF0EB11CF2016081718180E090E0A301A7
:1015800091D4E82EE6180F77302E36FE0BC0332D9F
:101590003E7FE11650F434FE0AC032FC08C0332D01
:1015A0003E7E05C00E2D332D03C00E2D01C0012F30
:1015B00034FF0CC0FE01EE0DF11D8081803311F46B
:1015C000397E08C032FF05C00E5F04C0832F8678C5
:1015D00009F00F5F33FD12C030FF06C01E2D0F153E
:1015E00018F41F0D101B0F2D0F1560F4B60180E2CB
:1015F00090E03B8BE9D30F5F3B89F6CF0F1510F4DA
:10160000F01A01C0F12C34FF11C0B60180E390E064
:101610003B8BDAD33B8932FF16C031FD03C088E72C
:1016200090E002C088E590E0B6010CC0832F867878
:1016300051F031FF02C08BE201C080E237FD8DE244
:10164000B60190E0C1D3E11630F4B60180E390E03A
:10165000BBD31150F8CFEA94F301EE0DF11D808158
:10166000B60190E0B1D3E110F6CF14C0F4E0FF155D
:1016700048F584E0F81A33FE1DC0211024C003FF92
:1016800027C00CEA10E0F32DF0713F2EF801849191
:10169000811121C0FF2009F4FDCCB60180E290E069
:1016A00093D3FA94F7CFF6018681978123C08FEF09
:1016B0009FEF20C0B60180E290E086D3FA94F1104B
:1016C000F9CFDBCFF12CB601822D90E07DD3D7CFBF
:1016D00000EB10E0D8CF31108052B60190E074D307
:1016E0000F5F1F4FD3CF23E02F1510F483E0C2CF3D
:1016F000F12CC5CF6396E2E15EC25058BB27AA2702
:101700000ED075C166D130F06BD120F031F49F3F1F
:1017100011F41EF45BC10EF4E095E7FB51C1E92F13
:1017200077D180F3BA17620773078407950718F01B
:1017300071F49EF58FC10EF4E0950B2EBA2FA02DFB
:101740000B01B90190010C01CA01A0011124FF276E
:10175000591B99F0593F50F4503E68F11A16F04069
:10176000A22F232F342F4427585FF3CF4695379568
:101770002795A795F0405395C9F77EF41F16BA0B2D
:10178000620B730B840BBAF09150A1F0FF0FBB1FDB
:10179000661F771F881FC2F70EC0BA0F621F731F24
:1017A000841F48F4879577956795B795F7959E3F81
:1017B00008F0B3CF9395880F08F09927EE0F97950F
:1017C00087950895D9D008F481E008950CD00FC111
:1017D00007D140F0FED030F021F45F3F19F0F0C0A7
:1017E000511139C1F3C014D198F39923C9F355238A
:1017F000B1F3951B550BBB27AA2762177307840704
:1018000038F09F5F5F4F220F331F441FAA1FA9F3B9
:1018100033D00E2E3AF0E0E830D091505040E695AB
:10182000001CCAF729D0FE2F27D0660F771F881F0C
:10183000BB1F261737074807AB07B0E809F0BB0BFB
:10184000802DBF01FF2793585F4F2AF09E3F51051F
:1018500068F0B6C000C15F3FECF3983EDCF38695BC
:1018600077956795B795F7959F5FC9F7880F911D95
:101870009695879597F90895E1E0660F771F881F81
:10188000BB1F621773078407BA0720F0621B730B34
:10189000840BBA0BEE1F88F7E095089504D0689486
:1018A000B111D9C00895BCD088F09F5790F0B92FDE
:1018B0009927B751A0F0D1F0660F771F881F991FA5
:1018C0001AF0BA95C9F712C0B13081F0C3D0B1E0B7
:1018D0000895C0C0672F782F8827B85F39F0B93FC7
:1018E000CCF3869577956795B395D9F73EF49095A7
:1018F0008095709561957F4F8F4F9F4F0895E89425
:1019000009C097FB3EF490958095709561957F4F47
:101910008F4F9F4F9923A9F0F92F96E9BB279395F5
:10192000F695879577956795B795F111F8CFFAF405
:10193000BB0F11F460FF1BC06F5F7F4F8F4F9F4F36
:1019400016C0882311F096E911C0772321F09EE894
:10195000872F762F05C0662371F096E8862F70E0FA
:1019600060E02AF09A95660F771F881FDAF7880FD4
:101970009695879597F90895990F0008550FAA0B2A
:10198000E0E8FEEF16161706E807F907C0F0121692
:101990001306E407F50798F0621B730B840B950B95
:1019A00039F40A2661F0232B242B252B21F40895EA
:1019B0000A2609F4A140A6958FEF811D811D089587
:1019C00097F99F6780E870E060E008959FEF80ECF2
:1019D000089500240A941616170618060906089595
:1019E00000240A9412161306140605060895092EFB
:1019F0000394000C11F4882352F0BB0F40F4BF2B6A
:101A000011F460FF04C06F5F7F4F8F4F9F4F0895A9
:101A100057FD9058440F551F59F05F3F71F047959F
:101A2000880F97FB991F61F09F3F79F08795089584
:101A3000121613061406551FF2CF4695F1DF08C0A3
:101A4000161617061806991FF1CF869571056105C0
:101A500008940895E894BB2766277727CB0197F968
:101A600008958ADF08F48FEF08950BD0C0CFB1DF5F
:101A700028F0B6DF18F0952309F0A2CFA7CF1124E4
:101A8000EACFC6DFA0F3959FD1F3950F50E0551F25
:101A9000629FF001729FBB27F00DB11D639FAA27C3
:101AA000F00DB11DAA1F649F6627B00DA11D661F12
:101AB000829F2227B00DA11D621F739FB00DA11D33
:101AC000621F839FA00D611D221F749F3327A00DED
:101AD000611D231F849F600D211D822F762F6A2F89
:101AE00011249F5750408AF0E1F088234AF0EE0F0E
:101AF000FF1FBB1F661F771F881F91505040A9F71B
:101B00009E3F510570F05CCFA6CF5F3FECF3983E4F
:101B1000DCF3869577956795B795F795E7959F5F81
:101B2000C1F7FE2B880F911D9695879597F908951B
:101B3000AA1BBB1B51E107C0AA1FBB1FA617B707F3
:101B400010F0A61BB70B881F991F5A95A9F780950F
:101B50009095BC01CD01089597FB072E16F40094D3
:101B600006D077FD08D0E4DF07FC05D03EF4909561
:101B700081959F4F0895709561957F4F08952F929D
:101B80003F924F925F926F927F928F929F92AF920D
:101B9000BF92CF92DF92EF92FF920F931F93CF935A
:101BA000DF93CDB7DEB7CA1BDB0B0FB6F894DEBFF1
:101BB0000FBECDBF09942A88398848885F846E8417
:101BC0007D848C849B84AA84B984C884DF80EE8061
:101BD000FD800C811B81AA81B981CE0FD11D0FB66A
:101BE000F894DEBF0FBECDBFED010895283008F098
:101BF00027E03327DA01990F311D87FD91600096A8
:101C00006105710539F432602E5F3D9330E32A950A
:101C1000E1F708959F3F30F080387105610509F0C4
:101C20003C5F3C5F3D93913008F08068911DDF93ED
:101C3000CF931F930F93FF92EF92192F987F969552
:101C4000E92F96959695E90FFF27E25FFE4F9927BA
:101C50003327EE24FF24A701E70105900894079499
:101C600028F4360FE71EF81E491F511D660F771F17
:101C7000881F991F0694A1F70590079428F4E70E92
:101C8000F81E491F561FC11D770F881F991F661F19
:101C90000694A1F70590079428F4F80E491F561FE3
:101CA000C71FD11D880F991F661F771F0694A1F7C4
:101CB0000590079420F4490F561FC71FD81F990F8E
:101CC000661F771F881F0694A9F7849110951770D7
:101CD00041F0D695C79557954795F794E7941A958F
:101CE000C1F7E4EBF0E0689415901591359165919A
:101CF000959105907FE27395E118F10A430B560B1D
:101D0000C90BD009C0F7E10CF11E431F561FC91FB4
:101D1000D01D7EF4703311F48A95E6CFE89401501B
:101D200030F0080F0AF40027021708F4202F23953B
:101D3000022F7A3328F079E37D932A95E9F710C0D2
:101D40007D932A9589F6069497956795379517950B
:101D50001794E118F10A430B560BC90BD00998F000
:101D600023957E9173957A3308F070E37C9320136A
:101D7000B8F77E9170617D9330F0839571E37D9328
:101D800070E32A95E1F71124EF90FF900F911F91D6
:101D9000CF91DF91992787FD90950895FC010590DB
:101DA000615070400110D8F7809590958E0F9F1F5D
:101DB0000895FC016150704001900110D8F78095A2
:101DC00090958E0F9F1F08950F931F93CF93DF93CE
:101DD000FB01238121FD03C08FEF9FEF28C022FF6D
:101DE00016C046815781248135814217530744F438
:101DF000A081B1819D012F5F3F4F318320838C9360
:101E0000268137812F5F3F4F3783268310C0EB0138
:101E1000092F182F0084F185E02D0995892BE1F613
:101E20008E819F8101969F838E83812F902FDF91DA
:101E3000CF911F910F910895AEE0B0E0E1E2FFE095
:101E4000ACCE0D891E8986E08C831A8309838FEFBF
:101E50009FE79E838D83AE01475E5F4F6F89788DCC
:101E6000CE010196EDD82F813885F801E20FF31FDE
:101E700010822E96E4E0ADCEAEE0B0E0E1E4FFE00B
:101E80008ECE85E08C838B899C899A838983AE0171
:101E9000495E5F4F6D897E89CE010196D0D12E9625
:101EA000E2E099CEFA01AA27283051F1203181F1E0
:101EB000E8946F936E7F6E5F7F4F8F4F9F4FAF4F52
:101EC000B1E03ED0B4E03CD0670F781F891F9A1F65
:101ED000A11D680F791F8A1F911DA11D6A0F711D19
:101EE000811D911DA11D20D009F468943F912AE025
:101EF000269F11243019305D3193DEF6CF0108950D
:101F0000462F4770405D4193B3E00FD0C9F7F6CF3D
:101F1000462F4F70405D4A3318F0495D31FD405205
:101F2000419302D0A9F7EACFB4E0A695979587959B
:101F300077956795BA95C9F700976105710508957A
:101F40009B01AC010A2E0694579547953795279526
:101F5000BA95C9F7620F731F841F951FA01D0895BE
:101F600020FD09C0FC0123FD05C022FF02C07383D0
:101F7000628351834083089544FD10C046FD10C024
:101F8000DB01FC01AA0FBB1FEE1FFF1F1094D1F74E
:101F90006A0F7B1F8E1F9F1F31E003C033E001C01B
:101FA00034E0660F771F881F991F3150D1F7620FF9
:101FB000711D811D911D08950F931F93CF93DF9382
:101FC0008C01C8016FD2EC0197FD06C058D2892B55
:101FD000C1F7B801CE01A4D2CE01DF91CF911F91FC
:101FE0000F910895A1E0B0E0E7EFFFE0CECD8C01C6
:101FF000C62E7A01298356D2AC01552729814B324E
:10200000510521F04D32510561F42068CA94C11088
:1020100002C080E06FC0C801298344D2298197FDA6
:10202000F8CF322F3D7FD32E322F307339F58033E6
:1020300029F5BB24BA94BC0C09F449C0C801298312
:1020400031D2298197FD43C0382F3F7D383561F467
:102050008D2D8264D82ECA94CA94CC20C1F1C801B7
:1020600021D297FF0BC033C026FF04C02D2D226064
:10207000D22E03C03D2D3261D32ECB2C812C912C3E
:10208000540120ED280F283078F0D4FE03C0B801A9
:1020900047D21AC02A3040F0D6FEF9CF2F7D3FEE4E
:1020A000320F3630A0F727504D2DC501B40164DF43
:1020B0004B015C018D2D8260D82ECA94CC2051F04A
:1020C000C801F0D197FFDDCFD1FC04C0A2CF812C95
:1020D000912C5401D7FE08C0B094A09490948094A1
:1020E000811C911CA11CB11C2D2DB501A401C7019F
:1020F00037DF81E02196ECE064CDA1E2B0E0E2E8D8
:10210000F0E141CD5C017A01CE0101966C0180E2E3
:10211000F60111928A95E9F7F501838040E050E0DD
:10212000912C712C70E0A1E0B0E0F90183FC859165
:1021300083FE81918F01982F9F01811103C080E060
:1021400090E07AC08E3519F44115510549F1E72F19
:10215000F0E0E417F5073CF48D3559F18D3219F4B0
:10216000772001F103C0711001C0982E892F869548
:10217000869586958601080F111D892F87703D0170
:1021800001C0660C8A95EAF7F80180818629808370
:10219000991559F0991510F49F5FE8CF9150E6CF4B
:1021A00071E004C07724739401C0712C4F5F5F4FBE
:1021B000BCCF772019F08E8180628E83711103C0AD
:1021C0009924939416C0F6019E012F5D3F4F8081A4
:1021D00080958193E217F307D1F7F2CFE114F10470
:1021E00029F0F7018083C70101967C016150912C91
:1021F000E9F0C50169A356D169A197FD15C0282F43
:10220000269526952695F601E20FF11D208130E0F6
:10221000AC014770552702C0359527954A95E2F7DE
:1022200020FDDCCFB5017CD1911089CFE114F10400
:1022300011F0F7011082C801A196EEE0C0CC4F92D8
:102240005F927F928F929F92AF92BF92CF92DF92D6
:10225000EF92FF920F931F93CF93DF931F92CDB70F
:10226000DEB76C012B015A01FC0117821682712C1A
:10227000F601F380F201F3FC8591F3FE8191382F92
:102280002F01882309F4E5C090E03983F8D0398123
:10229000892B19F0C60190DEEBCF353241F4F20103
:1022A000F3FC3591F3FE31912F01353259F4C6011B
:1022B0003983F8D0398197FDCAC03817C9F2B60101
:1022C0002FD1C7C03A3239F4F3FC3591F3FE319186
:1022D0002F0151E001C050E0420110E020ED230F3A
:1022E0002A3088F45260612F70E080E090E040E294
:1022F000598342DE162FF401F3FC3591F3FE319140
:102300004F015981EBCF052F232F240151FF03C02B
:10231000111102C09EC01FEF383619F03C3659F03B
:1023200011C0F401F3FC2591F3FE21912F01283611
:1023300049F4052F08600460F201F3FC2591F3FED7
:1023400021912F01222309F484C0622F70E08EEACC
:1023500091E029839CD02981892B09F47AC000FD62
:1023600007C0F501E080F180C50102965C0102C062
:10237000E12CF12C2E3649F4F6014681578160E0BC
:1023800070E0202FC701ECDD73CF233689F401FF05
:1023900011E0C60187D097FD5AC0E114F10429F07D
:1023A000F7018083C70101967C01115091F74BC062
:1023B0002B3551F49201A701612FC6019EDE2C013D
:1023C000892B09F040C03AC0C6012983F5DD298177
:1023D00097FD3DC02F3641F128F4243619F12936F6
:1023E00031F124C0233769F02537E1F01FC0E11433
:1023F000F10429F0F7018082C70101967C01115098
:1024000059F0C6014FD04C0197FD06C038D0892B3A
:1024100071F3B601C40184D0E114F104A1F0F70115
:10242000108211C0006203C0006101C00064202F4F
:10243000A701612FC601D6DD811105C0F601838198
:10244000807329F406C000FD13CF739411CF772059
:1024500019F0872D90E002C08FEF9FEF0F90DF9172
:10246000CF911F910F91FF90EF90DF90CF90BF9091
:10247000AF909F908F907F905F904F9008959111B3
:1024800068C0803219F089508550D0F70895FC015A
:102490000590061621F00020D9F7C0010895319764
:1024A000CF010895CF93DF93EC012B8120FF33C040
:1024B00026FF0AC02F7B2B838E819F8101969F83ED
:1024C0008E838A8190E029C022FF0FC0E881F981C4
:1024D0008081082E000C990B009719F420622B8341
:1024E0001AC03196F983E8830EC0EA85FB85099509
:1024F00097FF09C02B81019611F080E201C080E1B5
:10250000822B8B8308C02E813F812F5F3F4F3F83FB
:102510002E83992702C08FEF9FEFDF91CF9108950F
:10252000FB01238120FF12C026FD10C08F3F3FEF2B
:10253000930761F082832F7D206423832681378176
:102540002150310937832683992708958FEF9FEF14
:0C2550000895992788270895F894FFCF7C
:10255C000000803F0000803F6400506C6561736533
:10256C0020656E746572206265747765656E202DCA
:10257C003336302026202B33363020646567726565
:10258C006573293A200D0A0050726573732065201B
:10259C002B20456E74657220746F2066696E6973AA
:1025AC00682E200D0A002E2E2E72756E6E696E67C7
:1025BC002E2E2E0025640A00506F736974696F6E9D
:1025CC00207265666572656E63652028507220699D
:1025DC006E2064656772656573293A200A00506F36
:1025EC00736974696F6E206D6561737572656420B3
:1025FC0028506D20696E2064656772656573293A91
:10260C00200A0025660A0050726F706F7274696F31
:10261C006E616C206761696E3A200A0044657269CC
:10262C00766174697665206761696E3A200A0044A8
:10263C00757479206379636C653A200A0056656C71
:10264C006F636974793A200A00546F727175653A38
:10265C00200A004D6F746F72207265616479210DD0
:10266C000A20006D202D205374617274206D6F74DC
:10267C006F722E0D0A200072202D20536574207469
:10268C006865207265666572656E636520706F7330
:10269C006974696F6E20696E206465677265657315
:1026AC002E0D0A20007A202D205A65726F20746836
:1026BC006520656E636F646572206D61726B696E07
:1026CC0067207468652063757272656E7420706F14
:1026DC00736974696F6E2061732030206465677252
:1026EC006565732E0D0A200076202D2056696577BE
:1026FC00207468652063757272656E742076616CE7
:10270C00756573204B642C204B702C20566D2C203F
:10271C0050722C20506D2C20616E6420540D0A20B8
:10272C000074202D20457865637574652074726182
:10273C006A6563746F72790D0A200050202D204950
:10274C006E637265617365204B700D0A20007020FA
:10275C002D204465637265617365204B700D0A20F2
:10276C000044202D20496E637265617365204B64B3
:10277C000D0A200064202D20446563726561736529
:10278C00204B640D0A200025632025640052756ED1
:10279C006E696E67206D6F746F722E2E2E200D0A6F
:1027AC00004D6F746F722073746F70706564200DC0
:1027BC000A00456E746572207265666572656E639B
:1027CC006520706F7369746F6E20282D333630203E
:1027DC002D202B3336302064656772656573293A7A
:1027EC00200D0A005A65726F696E67207468652047
:1027FC00656E636F6465722E2E2E200D0A00446F79
:10280C006E652E200D0A0043757272656E7420760B
:10281C00616C756573206172653A200D0A00536511
:10282C007474696E67207570207472616A65637464
:10283C006F72792E2E2E200D0A00496E637265611F
:10284C007365204B70206279202E30353A200D0AAA
:10285C000043616E277420696E6372656173652035
:10286C00616E796D6F72652E200D0A004B702069B8
:10287C006E637265617365642E200D0A0044656396
:10288C007265617365204B70206279202E30353A69
:10289C00200D0A0043616E277420646563726561C4
:1028AC00736520616E796D6F72652E200D0A004B79
:1028BC0070206465637265617365642E200D0A0077
:1028CC00496E637265617365204B64206279202EBA
:1028DC00353A200D0A004B6420696E637265617392
:1028EC0065642E200D0A0044656372656173652072
:1028FC004B64206279202E353A200D0A004B64205F
:0E290C006465637265617365642E200D0A00B8
:00000001FF
